:020000040800F2
:10000000E8170020290200083D200008D91B00083D
:100010000D1E00087D040008F928000800000000FB
:10002000000000000000000000000000D7210008D0
:10003000C304000800000000D52100087D2200084C
:10004000430200084302000843020008430200087C
:10005000430200084302000843020008430200086C
:10006000430200084302000843020008430200085C
:10007000430200084302000843020008430200084C
:10008000430200084302000843020008430200083C
:10009000430200084302000843020008430200082C
:1000A000430200084302000843020008430200081C
:1000B00029230008352300084302000843020008F2
:1000C00043020008430200084302000843020008FC
:1000D0004302000843020008ED280008430200081C
:1000E00043020008430200084302000843020008DC
:1000F00043020008430200084302000843020008CC
:1001000043020008430200084302000843020008BB
:1001100043020008430200084302000843020008AB
:10012000430200084302000843020008430200089B
:10013000430200084302000843020008430200088B
:10014000430200084302000843020008430200087B
:10015000430200084302000843020008430200086B
:10016000430200084302000843020008430200085B
:100170004302000843020008430200080000000098
:10018000430200084302000800F002F800F03CF8C7
:100190000AA090E8000C82448344AAF10107DA45E2
:1001A00001D100F031F8AFF2090EBAE80F0013F0F8
:1001B000010F18BFFB1A43F001031847544A00000F
:1001C000744A0000103A24BF78C878C1FAD85207A0
:1001D00024BF30C830C144BF04680C6070470000C1
:1001E0000023002400250026103A28BF78C1FBD840
:1001F000520728BF30C148BF0B6070471FB504F0DD
:100200002EFC1FBD10B510BD00F003F91146FFF71D
:10021000F5FF03F011FB00F021F903B4FFF7F2FF43
:1002200003BC00F025F90000094880470948004751
:10023000FEE7FEE7FEE7FEE7FEE7FEE7FEE7FEE796
:10024000FEE7FEE704480549054A064B70470000F3
:100250001923000889010008E8110020E817002090
:10026000E8130020E813002053EA020C00F0698034
:100270002DE9F04B4FF00006002B1FBFB3FA83F5BA
:1002800003FA05F424FA05F65E4012BF1643B2FAEB
:1002900082F502FA05F4C5F120051EBF22FA05FC1D
:1002A00044EA0C04203556EA044C4FEA144418BFC3
:1002B000641C4FF000084FF00009904271EB030CF2
:1002C00039D3002919BFB1FA81F701FA07F6B0FA5C
:1002D00080F700FA07F6C7F120071EBF20FA07FCD7
:1002E00046EA0C062037B6FBF4FCA7EB0507103FE7
:1002F00007F01F0BCBF120060CFA0BFB2CFA06F6CD
:1003000044BFB3460026202FA4BF5E464FF0000B2B
:100310005BEA060C08BF4FF0010B19EB0B09ABFBB6
:10032000027C48EB0608C01B06FB02CC0BFB03CC8F
:1003300071EB0C01C1E70B46024641464846BDE859
:10034000F08B13B54FF000004FF00001AFF30080C9
:10035000BDE81C40704710B5431C02E010F8011BBB
:1003600071B18107FAD14FF0013202C88C1A8C4367
:1003700014EAC211F9D0C01A0A0603D0C01E10BD7B
:10038000C01A10BD0A0401D0801E10BD0902FCD0A5
:10039000401E10BD4FF0000200B51346944696462D
:1003A000203922BFA0E80C50A0E80C50B1F1200188
:1003B000BFF4F7AF090728BFA0E80C5048BF0CC036
:1003C0005DF804EB890028BF40F8042B08BF704794
:1003D00048BF20F8022B11F0804F18BF00F8012B06
:1003E000704770477047704710B500F00DF800680F
:1003F00010BD10B5044600F007F8046010BD000001
:10040000004870478811002000487047881100207C
:1004100070477546FFF7F4FFAE4605006946534640
:1004200020F00700854618B020B5FFF70BFFBDE8A8
:1004300020404FF000064FF000074FF000084FF04B
:10044000000B21F00701AC46ACE8C009ACE8C009DC
:10045000ACE8C009ACE8C0098D46704710B5044649
:10046000AFF300802046BDE81040FFF7D6BE000085
:1004700001491820ABBEFEE726000200FEE742F26B
:10048000FC1148434FF4B471B0FBF1F000EE100AD8
:10049000B8EE400ABCEEC00A10EE100A80B27047F7
:1004A0004FF4B471484342F2FC11B0FBF1F000EE9E
:1004B000100AB8EE400ABCEEC00A10EE100A80B274
:1004C0007047704772B6FEE72DE9F0410446876D2C
:1004D00000F054F9064694F835000025022806D0AD
:1004E0008020606584F834500120BDE8F0812068E8
:1004F000016821F0160101602068416921F0800146
:100500004161206C08B9A06C20B12068016821F01D
:10051000080101602068016821F0010101600CE020
:1005200000F02CF9801B052807D9202060650320E6
:1005300084F8350084F83450D7E720680068C00795
:10054000EED194F85C103F208840B860012084F818
:10055000350084F834500020C7E790F835100229A0
:1005600003D08021416501207047052180F83510B6
:100570000068016821F0010101600020704700005F
:100580002DE9F84FDFF8BCA1002201250AF1040B88
:1005900003264FF00F090BF1040E00BF0B6805FA9C
:1005A00002F42340A34270D10F7907F00307012F13
:1005B00001D0022F16D187684FEA420806FA08FCDC
:1005C00027EA0C07D1F80CC00CFA08FC4CEA070C1F
:1005D000C0F808C04768A7430C79C4F300149440DE
:1005E0003C4344600C79E443A4070AD0C4684FEA52
:1005F000420C06FA0CF7BC438F6807FA0CF7274346
:10060000C7600C7904F00304022C12D1D40800EB6B
:10061000840CDCF820405707FF0E09FA07F824EA9B
:100620000804D1F8108008FA07F848EA0408CCF862
:10063000208004684FEA420C06FA0CF7BC430F799D
:1006400007F0030707FA0CF7274307604C6814F418
:10065000403F70D03C4C276847F4804727602468AF
:1006600022F0030704F480440094384C07EB040C98
:10067000DCF8084897074FEA177809FA08F7BC43EF
:10068000334FB84202D1002724E054E0314FB84242
:1006900001D101271EE0304FB84201D1022719E0F5
:1006A0002E4FB84201D1032714E02D4FB84201D19B
:1006B00004270FE02B4FB84201D105270AE02A4F4B
:1006C000B84201D1062705E0284FB84201D10727DB
:1006D00000E0082707FA08F72743CCF80878DAF88B
:1006E00000405746D1F804C09C435FEACC3C00D59B
:1006F0001C433C60DBF800405F46D1F804C09C43DB
:100700005FEA8C3C00D51C433C60DEF80040774635
:10071000D1F804C09C435FEACC2C00D51C433C605C
:10072000084F0C373C68D1F804C09C435FEA8C2C1E
:1007300000D51C433C60521C102AFFF42FAFBDE8CB
:10074000F88F0000003C0140443802400030014076
:10075000000002400004024000080240000C024079
:10076000001002400014024000180240001C024029
:100770000AB1816170470904FBE700000148806805
:100780007047000058000020024881680278114438
:1007900081607047580000200B4810B5016841F493
:1007A00000710160016841F480610160016841F4F9
:1007B00080710160032000F06FF80F2000F006F850
:1007C00000F024F8002010BD003C024070B50D4D33
:1007D00004464FF47A712878B1FBF0F00A490968B1
:1007E000B1FBF0F000F00AFB48B9102C07D2002250
:1007F0002146501E00F030F800206C6070BD0120D2
:1008000070BD000058000020640000200A4808B5B0
:10081000016841F480410160006800F4804000906C
:100820000548001F016841F080510160006800F038
:100830008050009008BD000044380240002809DBC9
:1008400000F01F02012191404009800000F1E020EA
:10085000C0F8001170470000F0B40E4B1B680C4646
:10086000C3F30223C3F10705042D00D90425191D84
:10087000072901D2002300E0DB1E012606FA05F15C
:10088000491E214099409E40761E16403143F0BCDF
:1008900002F04BB80CED00E0064900F007020868D2
:1008A0004FF6FF03184040EA0220034A1043086055
:1008B000704700000CED00E00000FA052DE9F0475C
:1008C0000E46050065D0DFF81481D8F80000F7B2B5
:1008D00000F00700B04207D288F80070D8F8000096
:1008E00000F00700B04254D128683D4C810712D572
:1008F000400703D5206840F4E050206028780007C6
:1009000003D5206840F4604020602068A96820F08A
:10091000F000084320602878C0072DD0304968686F
:100920000839012812D0022813D0032811D00968F1
:10093000890700292DDA216821F003010143216094
:10094000FFF71CFF814641F2883A0EE009688903EF
:10095000EFE709688901ECE7FFF710FFA0EB090159
:10096000514502D90320BDE8F0872068696800F08E
:100970000C00B0EB810FEFD1D8F80010404601F029
:100980000701B14207D90770006800F00700B042C4
:1009900001D00120E7E72878400705D52068E968FD
:1009A00020F4E050084320602878000706D520682E
:1009B000296920F4604040EAC100206000F038F866
:1009C0002168084AC1F30311515CC8400649086018
:1009D00006480068FFF7FAFE0020C4E7003C02402A
:1009E00008380240624B0008640000205C000020D0
:1009F0000448054900680968044AC1F38221515C32
:100A0000C84070476400002008380240724B00085C
:100A10000448054900680968044AC1F34231515C41
:100A2000C84070476400002008380240724B00083C
:100A3000154810B5006810F00C02144813D041108E
:100A4000042A0FD0082A0ED10F4C241F22682368D5
:100A500002F03F025B0207D52068C0F38810A0FBBC
:100A6000010106E0084610BD2168C1F38811A1FB11
:100A700000010023FFF7F8FB2168C1F30141491C85
:100A80004900B0FBF1F010BD083802400024F4002A
:100A90002DE9F84F04006ED02078DFF84C93C007A2
:100AA000A9F104054AD009F104000168C1F38101EC
:100AB000012908D00068C0F3810002280AD1D9F8C2
:100AC0000000400206D52868800337D560680028FA
:100AD000E1D033E06068B0F5803F10D0B0F5A02FD2
:100AE000286810D020F480302860286820F4802006
:100AF00028606068A8B1FFF741FE06460DE028684F
:100B000040F48030F4E740F480202860F7E700BF2D
:100B1000FFF734FE801B642873D828688003F7D55C
:100B20000CE0FFF72BFE064605E000BFFFF726FEB0
:100B3000801B6428F0D828688003F7D42078DFF879
:100B4000AC8280074FF0000A3ED5A748001D01681F
:100B500011F00C0F08D00068C0F3810002280BD1FF
:100B6000D9F80000400207D42868800716D5E0684D
:100B7000012800D112E033E1E068B8B10120C8F8E3
:100B80000000FFF7FBFD064605E000BFFFF7F6FD9E
:100B9000801B0228C0D828688007F7D528682169FB
:100BA00020F0F80040EAC10028600DE0C8F800A07D
:100BB000FFF7E4FD064604E0FFF7E0FD801B022896
:100BC0001FD828688007F7D42078000722D5864FE1
:100BD00087486169703771B101210160FFF7CEFD6F
:100BE000064604E0FFF7CAFD801B022809D83868D2
:100BF0008007F7D50EE0C0F800A0FFF7BFFD06465E
:100C000005E082E0FFF7BAFD801B02287DD8386836
:100C10008007F7D42078400768D5DFF8CCB10027EB
:100C20000BF13C0BDBF80000C0000BD4DBF800102C
:100C300041F08051CBF80010DBF80000012700F0F4
:100C4000805000906B4E3068C00510D4306840F47E
:100C500080703060FFF792FD009005E0FFF78EFD99
:100C60000099401A022850D83068C005F6D55E4E6B
:100C7000A0686C3601280FD00528306810D020F00D
:100C800001003060306820F004003060A068B8B126
:100C9000FFF774FD00900FE0306840F00100F4E7CA
:100CA00040F004003060F7E7FFF768FD0099411A53
:100CB00041F28830814266D830688007F4D50EE072
:100CC000FFF75CFD009007E0FFF758FD0099411A1F
:100CD00041F28830814256D830688007F4D42FB171
:100CE000DBF8001021F08051CBF80010A069C8B3E8
:100CF0003D49091D0968C1F3810102294AD0022832
:100D0000504607D0C8F8600000E03CE0FFF736FD31
:100D100004463BE04746C8F86000FFF72FFD064653
:100D200005E000BFFFF72AFD801B02282BD82868AA
:100D30008001F7D4D4E907010843A16A2E4A490883
:100D400002EB0141626A41EA8211084394F82C10D7
:100D500040EA0161C9F8001001203866FFF70EFD76
:100D6000044606E03EE000BFFFF708FD001B022836
:100D700009D828688001F7D534E000BFFFF7FEFCF2
:100D8000001B022802D90320BDE8F88F28688001E3
:100D9000F4D427E00128F7D0D9F80000E26900F484
:100DA000800191421CD1226A00F03F01914217D18B
:100DB00047F6C071626A0140B1EB821F10D1A26A8E
:100DC0004FF0FF3300F4403103EB5202B1EB024F1E
:100DD00006D194F82C1000F07060B0EB016F01D0D8
:100DE0000120D1E70020CFE704380240000047424D
:100DF000800E4742007000400000FFFF10B5401E0B
:100E0000B0F1807F01D3012010BD4FF0E02460617C
:100E10000F21601701F089FD0020A06107202061EB
:100E2000002010BD7047704770B590F83C20012A33
:100E300032D0012480F83C40022280F83D20036833
:100E40005A689D6822F070060A6832435A60134B54
:100E500002689A4214D0B2F1804F11D0104B9A42DE
:100E60000ED0104B9A420BD00F4B9A4208D00F4B2A
:100E70009A4205D00E4B9A4202D00E4B9A4204D1B0
:100E8000496825F080031943916080F83D400021B6
:100E900080F83C10084670BD022070BD0000014083
:100EA0000004004000080040000C00400004014025
:100EB000004001400018004010B5040003D094F831
:100EC0003D0010B107E0012010BD002084F83C0077
:100ED000204600F01FF8022084F83D00211D206804
:100EE00001F02EFA012084F8460084F83E0084F8D0
:100EF0003F0084F8400084F8410084F8420084F800
:100F0000430084F8440084F8450084F83D00002044
:100F100010BD000008B50068B0F1804F12D10A483A
:100F2000016841F0010101600068002200F0010049
:100F3000009011461C20FFF78FFCBDE808401C20E4
:100F4000FFF77CBC08BD00004038024090F83D101F
:100F5000012901D001207047022180F83D1001686D
:100F6000CA6842F00102CA6000681149884214D080
:100F7000B0F1804F11D00F4988420ED00E498842FF
:100F80000BD00E49884208D00D49884205D00D4942
:100F9000884202D00C49884204D1816801F00701DF
:100FA000062903D0016841F001010160002070476B
:100FB000000001400004004000080040000C004018
:100FC00000040140004001400018004070B5044694
:100FD00090F83C000025012817D0012684F83C60D9
:100FE000022084F83D002068826822F0770222F413
:100FF0007F4282600868502838D00DDC20284FD00E
:1010000005DC90B3102811D14AE0022070BD3028D1
:1010100046D040280AD13BE060282FD070280DD060
:10102000B0F5805F03D0B0F5005F12D0012584F8E1
:101030003D60002084F83C00284670BDCB68D1E9B3
:101040000121206801F0EDF92068816841F0770105
:1010500009E0CB68D1E90121206801F0E2F92068BC
:10106000816841F480418160E1E719E0CA6849681C
:10107000206801F0ABFA5021206806E0CA68496890
:10108000206801F0B4FA6021206801F0D4F9CEE7BD
:10109000CA684968206801F099FA40212068F4E79D
:1010A000226801461046F0E72DE9F0410D460400A4
:1010B00003D094F83D0018B108E00120BDE8F081AC
:1010C000002084F83C00204600F040F8022084F81C
:1010D0003D002068816844F2070291438160211D30
:1010E000206801F02DF9226890689169166A2B68D2
:1010F000AF69034340F20330814341EA0721A86806
:10110000EF6908434FF6FC418843E96840EA07204D
:10111000014328692F6A000140EA073008436968E3
:101120006D6926F0AA0646EA0515294393602268F0
:10113000906154F8460B0162012004F81F09E07524
:101140002076E0762077A0750020B7E710B586B04E
:10115000044614216846FFF71DF9134920688842A8
:101160001FD112480021026842F0040202600068A8
:1011700000F0040005900D481038026842F00802A3
:101180000260006800F0080005904FF440500090A5
:101190000220CDE90101CDE9031069460448FFF7BB
:1011A000EFF906B010BD00000008004040380240D2
:1011B000000C024070B590F83E60044690F83F5035
:1011C00090F8423090F84320022021B104290ED03B
:1011D000012E1BD114E0012E18D1012B16D184F859
:1011E0003E0084F8420001220021206820E0012D09
:1011F0000CD1012A0AD184F83F0084F8430014E09E
:10120000012D03D1012B01D1012A01D0012070BD94
:1012100084F83E0084F83F0084F8420084F84300DC
:1012200001220021206801F0EFF80122042120684A
:1012300001F0EAF82068016841F001010160002036
:1012400070BD704770B50446006801694FF0000535
:10125000C943890715D4C168C943890711D4E91E58
:10126000016101202077206880698007204602D034
:10127000FFF7E7FF04E000F0C1F8204600F070F946
:10128000257720680169C943490717D4C168C94354
:10129000490713D46FF00401016102202077206810
:1012A000806910F4407F204602D0FFF7CAFF04E0B7
:1012B00000F0A4F8204600F053F925772068016972
:1012C000C943090716D4C168C943090712D46FF08E
:1012D00008010161042020772068C069800720464A
:1012E00002D0FFF7AEFF04E000F088F8204600F0DF
:1012F00037F9257720680169C943C90617D4C16841
:10130000C943C90613D46FF010010161082020778A
:101310002068C06910F4407F204602D0FFF791FF9B
:1013200004E000F06BF8204600F01AF925772068F9
:101330000169C943C90708D1C168C943C90704D1B4
:10134000891E0161204600F0EBF920680169C9435C
:10135000090609D4C168C943090605D46FF08001A4
:1013600001612046FFF75EFD20680169C943490617
:1013700009D4C168C943490605D46FF04001016131
:10138000204600F001FA20680169C94389060BD4A0
:10139000C168C943890607D46FF020010161204666
:1013A000BDE87040FFF73FBD70BD000010B586B0CE
:1013B000044614216846FEF7EDFF0D492068884277
:1013C00014D10C480021026842F00102026000685A
:1013D00000F001000590C02000900220CDE901013D
:1013E000CDE9031069460448FFF7CAF806B010BDFE
:1013F000000400403038024000000240704770B5E1
:10140000044690F83C0000260D4601280FD001202C
:1014100084F83C006AB1042A1DD0082A2FD00C2A77
:101420003FD00126002084F83C00304670BD0220E9
:1014300070BD206801F008F82068816941F008015A
:1014400081612068816921F00401816120688169DE
:101450002A69114311E0206801F026F820688169AB
:1014600041F4006181612068816921F480618161BA
:10147000206881692A6941EA02218161D2E72068F6
:1014800001F048F82068C16941F00801C161206895
:10149000C16921F00401C1612068C1692A69114351
:1014A00011E0206801F06AF82068C16941F4006128
:1014B000C1612068C16921F48061C1612068C1698E
:1014C0002A6941EA0221C161ACE710B5040003D0EA
:1014D00094F83D0010B107E0012010BD002084F811
:1014E0003C00204600F01EF8022084F83D00211D3B
:1014F000206800F025FF012084F8460084F83E00B3
:1015000084F83F0084F8400084F8410084F84200E9
:1015100084F8430084F8440084F8450084F83D00D2
:10152000002010BD08B500680B49884212D10B4855
:10153000016841F0020101600068002200F0020031
:10154000009011461D20FFF787F9BDE808401D20D7
:10155000FFF774B908BD00000004004040380240A5
:101560007047000010B50446022249B104290ED08C
:10157000082913D094F84100012816D0012010BD8D
:1015800094F83E000128F9D184F83E200FE094F849
:101590003F000128F2D184F83F2008E094F8400091
:1015A0000128EBD184F8402001E084F84120012299
:1015B000206800F029FF16492068164A884201D0A9
:1015C000904203D1436C43F4004343642068884253
:1015D00013D0B0F1804F10D00F4988420DD00F4981
:1015E00088420AD00E49884207D0904205D00D4962
:1015F000884202D00C49884204D1816801F0070179
:10160000062903D0016841F001010160002010BDEE
:1016100000000140000401400004004000080040B8
:10162000000C0040004001400018004030B500258B
:101630000446022249B1042912D008294CD094F85A
:101640004100012853D0012030BD94F83E0001280C
:10165000F9D184F83E202068C26842F0020209E015
:1016600094F83F000128EED184F83F202068C2683A
:1016700042F00402C2600122206800F0C5FE214948
:101680002068214A884201D0904203D1436C43F440
:10169000004343642068884213D0B0F1804F10D0DB
:1016A0001A4988420DD01A4988420AD019498842FD
:1016B00007D0904205D01849884202D01749884285
:1016C00004D1816801F00701062903D0016841F0C7
:1016D00001010160284630BD94F840000128B2D1D4
:1016E00084F840202068C26842F00802C2E784F80B
:1016F00041200C2901D00125ECE72068C26842F0A6
:101700001002B7E70000014000040140000400405F
:1017100000080040000C004000400140001800405C
:10172000144900680968884219D1134801780829CA
:1017300015D2DFE801F014141404141414150F4921
:101740000988B1F5167F02D25A2000F031BC0C4A4C
:101750000021136859631268916301210170704779
:10176000084890ED020ABCEEC00A10EE100A80B2E2
:1017700000F07EBB6C10002014000020160000203A
:10178000B4100020381000207047704770470000E8
:10179000F8B5016804460868CA684B6910F00F0F75
:1017A0004FF0000559D003F0010602F4907737435B
:1017B00065D0C10705D0D10503D5216C41F00101E9
:1017C0002164410705D5D90703D0216C41F00201FE
:1017D0002164810705D5D90703D0216C41F00401AC
:1017E0002164010707D502F02001314303D0216CA9
:1017F00041F008012164216C00293AD0800604D50B
:10180000900602D5204600F033FF20684069216C25
:10181000C0F38010090700D460B3204600F001FF38
:1018200020684069400621D52068143050E8001F28
:1018300021F0400140E80012002AF5D1A06BA8B1C8
:101840006C490165A06BFEF788FE002811D0A06BE3
:10185000016D01B0BDE8F040084783060FD593063F
:101860000DD52046BDE8F84000F002BF2046FFF746
:101870008DFFF8BD2046FFF789FF2564F8BD266B74
:101880002023012E79D1C60677D5D60675D50868EE
:10189000486800904869400640D5A16B08684068D8
:1018A0000004000CEAD0A28D8242E7D9E085C86925
:1018B000B0F5807F2DD020680C3050E8001F21F457
:1018C000807140E80012002AF5D12068143050E8F9
:1018D000001F21F0010140E80012002AF5D1206824
:1018E000143050E8001F21F0400140E80012002AA7
:1018F000F5D184F83E30256320680C3050E8001F95
:1019000021F0100140E80012002AF5D1A06BFEF78B
:10191000DBFDA08DE18D401A81B229E0A08DE18D23
:10192000401A81B2E08D0028A8D00029A6D02068F6
:101930000C3050E8002F22F4907240E80026002E70
:10194000F5D12068143050E8002F22F0010240E861
:101950000026002EF5D184F83E30256320680C3037
:1019600050E8002F22F0100240E80023002BF5D1B0
:101970002046FFF70AFFF8BDFFE705062BD5150641
:1019800029D594F83D002128F5D1A068B0F5805FF5
:1019900001D12069B0B1206A411C21622168007820
:1019A0004860E08C401E0004000CE084E3D1206815
:1019B000C16821F08001C1602068C16841F0400128
:1019C000C160D8E7206A0088C0F308004860206A38
:1019D000801C2062E5E74006CDD55006CBD5CA680D
:1019E000204622F04002CA6084F83D3000F0F3F84F
:1019F000C1E700001326000870B5040004D094F875
:101A00003D00002510B106E0012070BD84F83C5077
:101A1000204600F023F8242084F83D002068C168A7
:101A200021F40051C160204600F082FE2068016967
:101A300021F4904101612068416921F02A0141614E
:101A40002068C16841F40051C1602564202084F8F9
:101A50003D0084F83E00002070BD000010B586B047
:101A6000044614216846FEF795FC17492068884211
:101A700028D116480021026842F400320260006852
:101A800000F40030059011481038026842F001025D
:101A90000260006800F0010005900C200090022018
:101AA000CDE901010320039007200490694608480E
:101AB000FEF766FD002211462620FEF7CDFE262009
:101AC000FEF7BCFE06B010BD0044004040380240A6
:101AD0000000024090F83E30202B0ED159B152B197
:101AE00090F83C30012B08D0012380F83C300023D3
:101AF000036300F0A3BE012070470220704700007E
:101B000000680549884205D104490120087004484D
:101B100000F076BB70470000004400400000002049
:101B2000680000202DE9F843044690F83D001F4668
:101B300016460D4620284CD1C5B1BEB194F83C00E4
:101B4000012846D0012084F83C004FF00008C4F87A
:101B50004080212084F83D00FEF710FEA6848146D7
:101B6000E684A068B0F5805F03D004E00120BDE802
:101B7000F883206928B12E465FF0000584F83C8088
:101B80000EE00026FAE78021204600F072FEA0B9A0
:101B9000AEB116F8010B21684860E08C401EE0846D
:101BA000E08C4B464FF0000200970028EBD14FF03D
:101BB0004001204600F05DFE30B10320D7E735F844
:101BC000020BC0F30800E6E7202084F83D00002067
:101BD000CDE70220CBE77047FEE7000070B586B086
:101BE00014216846FEF7D6FB22480024016841F024
:101BF00004010160016801F004010591016841F0F0
:101C000080010160016801F080010591016841F0E7
:101C100001010160016801F001010591016841F0D5
:101C200002010160016801F002010591016841F0C3
:101C3000080101600068104E00F008004FF40055E4
:101C40000590002229463046FEF792FD01200095BE
:101C5000CDE90104694630460394FEF791FCA810D3
:101C6000CDE90004694605480294FEF789FC06B0F8
:101C700070BD0000303802400008024000040240FD
:101C800010B586B000241648009401940294039481
:101C900004944FF08041059401606321C0E9011470
:101CA00041F26701C0E903148461FFF705F908B147
:101CB000FEF708FC4FF48050009069460848FFF793
:101CC00085F908B1FEF7FEFB049404A904480594C5
:101CD000FFF7AAF8002801D0FEF7F4FB06B010BD0C
:101CE0006C10002010B58AB0002407941C216846AF
:101CF0000894FEF74FFB1B481949016040F2473139
:101D0000C0E9011440F2E731C0E903148461FFF730
:101D1000DCFB08B1FEF7D6FB079407A9114808942D
:101D2000FFF782F808B1FEF7CDFB6020CDE9000493
:101D30000294002269460B480494FFF760FB08B147
:101D4000FEF7C0FB042269460648FFF758FB08B1BE
:101D5000FEF7B8FB0348FFF729FB0AB010BD0000EF
:101D600000040040B410002010B58CB02421684657
:101D7000FEF710FB00241648099414490A94C0E9A0
:101D800000144FF6FF71C0E9024104618461032031
:101D9000CDE900040120CDE902040494CDE9054019
:101DA000079469460A480894FFF77EF908B1FEF7E0
:101DB00089FB099409A906480A94FFF735F8002819
:101DC00001D0FEF77FFB0CB010BD00000008004002
:101DD000FC1000200C4810B50A4901604FF4E131B5
:101DE0004160002181600C22C160C0E90412816160
:101DF000C161FFF701FE002803D0BDE81040FEF7E7
:101E000061BB10BD0044004044110020FEE700000B
:101E100010B51248FFF79AF800211148FFF7A2FB0E
:101E200004210F48FFF79EFB00210E48FFF7C2F97F
:101E300004210C48FFF7BEF90B4800F04FF9DFED25
:101E40000B0AB7EE000A0848B0EE601A00F032F94B
:101E5000BDE81040012000F083B800006C100020A5
:101E6000B4100020FC1000207C00002000000000C6
:101E700070B5304E3168496A2F4CA1F50041E160E0
:101E8000FEF7FDFA206100EE100AD4ED030A9FED83
:101E90002B1AB8EE400AF8EE600A294800F0D0F894
:101EA000BDEEC00A10EE100AA060002803DB80B26D
:101EB00000F066F803E0404280B200F06DF8214D7A
:101EC0002149286B884211DB31684FF40040486299
:101ED00000209FED1E0AA06085ED0C0A01212170F3
:101EE0001B490A6850630968886316E0A08980B2BC
:101EF000FEF7D6FA124962880A2301EB4201020A70
:101F0000A1F8EC070C49091D4A700870022211481B
:101F1000FFF708FE6088401C6080286B02F02EFDF1
:101F20009FED0D1B53EC112B01F05EFF01F02AFF1A
:101F3000286370BDFC100020140000200AD7233C49
:101F40007C00002038100020EC51C0400000000050
:101F5000B4100020441100207B14AE47E17A843F86
:101F6000064B4FF4006128B1012805D10122184623
:101F7000FEF7FEBB0022FAE77047000000040240B3
:101F800010B5044600210348FFF750FB01480068E4
:101F9000446310BDB410002010B50446042103486A
:101FA000FFF744FB01480068846310BDB4100020B3
:101FB0001D4910B50968496A1C4CA1F50041E16052
:101FC000FEF75DFA206100EE100AD4ED030A9FEDE2
:101FD000181AB8EE400AF8EE600A164800F030F819
:101FE000BDEEC00A10EE100AA060002803DB80B22C
:101FF000FFF7C6FF03E0404280B2FFF7CDFF0D4977
:102000006288A08901EB4201020A888307490A23FA
:10201000091D4A70087002220748FFF783FD608897
:10202000401C608010BD0000FC1000201400002047
:102030000AD7233C7C00002044110020FEE700006A
:1020400030EE602A1A49F0EE002A81ED002A61EE96
:10205000220AD0ED003AD0ED011A20EEA30A21EEBB
:10206000813AD0ED021A03EE010A23EE011AB1EE15
:10207000003A01EEC31A01EEA20A61EEA21A90ED37
:10208000033A00EEE31A60EE022A90ED040A41EEF4
:10209000032A41EE802A90ED050A40EE802A82EE66
:1020A000A00A80ED050A80ED043A80ED032A70470E
:1020B0002800002000B5F0EE401A014600F00EF8AE
:1020C000C1ED001AC1ED010A81ED021A02494FF477
:1020D00000400968486200BDFC1000209FED040A22
:1020E00080ED060A80ED030A024880ED000A704781
:1020F000000000002800002070B52F4D04462DED93
:10210000088B30EEC18AB0EE40BA85ED018A90EDC1
:10211000060A70EE088AC0ED068AD5ED020A90ED37
:10212000020A78EE600A20EE200A10EE100A02F091
:1021300025FC9FED221B53EC112B01F011FF41EC0C
:102140001A0B18EE900A02F019FC41EC190B6068AA
:1021500002F014FC9FED1B0B53EC102B02F0BEF8A9
:1021600053EC192B02F0BAF894ED000A41EC190B6C
:1021700060EE080A10EE900A02F000FC53EC192BF6
:1021800001F032FE53EC1A2B01F02EFE01F0FAFDA5
:1021900000EE100A0D4985ED028A3BEE000A10EEB2
:1021A000100A884201DB9FED0A0ABDEC088BBDEEE8
:1021B000C00A10EE100A70BD280000207B14AE4744
:1021C000E17A843F7B14AE47E17A743F00C07944E2
:1021D00000C0794470477047122202490248FFF755
:1021E00079BC00006800002044110020122202493E
:1021F0000248FFF76FBC0000680000204411002077
:10220000154910B509780170002923D01249407C86
:10221000491C097888421DD1042201210F4801F090
:1022200093FD0D4C0068641E0322C4F807000521CD
:102230000A4801F089FD0188A1808078A0710822F8
:102240001146064801F080FD0168C4F80B10406893
:10225000C4F80F0010BD000001000020680000203D
:1022600030B5002306E0C45CCD5CAC4201D0002058
:1022700030BD5B1C9342F6DB012030BDFEF784BA13
:1022800030B593B030216846FEF784F814210CA8CD
:10229000FEF780F81E480025016841F0805101607A
:1022A000006800F0805011901A48016841F48041A4
:1022B00001600068022400F4804011900120009029
:1022C000000401908001CDE90640082008904FF4F9
:1022D000A870CDE9090404200B906846FEF7D8FBEE
:1022E00008B172B6FEE70CA90F2081E831004FF467
:1022F000A0500F904FF48050109005210CA8FEF7CD
:10230000DDFA002801D072B6FEE713B030BD000040
:1023100040380240007000400248016841F47001FA
:102320000160704788ED00E00148FEF78BBF0000B8
:102330006C1000200148FEF785BF0000B41000209B
:10234000F0B50268254C264D264E274F274B4FF0FF
:10235000804CA04209D0604507D0A84205D0B042C9
:1023600003D0B84201D0984204D122F0700E4A68DE
:1023700042EA0E02A0421BD0604519D0A84217D0F5
:10238000B04215D0B84213D0984211D0184DA8428F
:102390000ED0184DA8420BD0174DA84208D0174DAB
:1023A000A84205D0164DA84202D0164DA84203D12E
:1023B00022F44075CA682A434D6922F080022A43FC
:1023C00002608A68C2620A688262A04201D09842B2
:1023D00001D10969016301214161F0BD00000140A3
:1023E0000004004000080040000C004000040140D0
:1023F00000400140004401400048014000180040F6
:10240000001C00400020004010B501F01F03012116
:10241000046A99408C430462016A9A401143016244
:1024200010BD10B5846842EA032224F47F440A43B5
:102430002243826010BD826822F070020A4342F09B
:102440000701816070470000F0B5026A22F00102C6
:102450000262036A42688469124E24F073050C68B4
:102460002C4323F002058B682B430D4DA84201D06D
:10247000B04205D123F00807CB683B4323F00403A7
:10248000A84201D0B04205D14D6922F440721543F3
:102490008A692A4342608461496841630362F0BDEE
:1024A0000000014000040140F0B5026A22F0100271
:1024B0000262026A436884690D6824F4E64444EACF
:1024C00005248D6822F0200242EA05120F4D104EBD
:1024D000A84201D0B04206D1CF6822F0800242EA81
:1024E000071222F04002A84201D0B04207D14D6944
:1024F00023F4406343EA85038D6943EA850343601F
:102500008461496881630262F0BD000000000140FF
:1025100000040140F0B5026A22F480720262026A8D
:102520004368C46922F4007224F073050C68124EEB
:102530002C438D6842EA05220E4DA84201D0B042DC
:1025400006D1CF6822F4006242EA072222F48062B8
:10255000A84201D0B04207D14D6923F4405343EA69
:1025600005138D6943EA05134360C4614968C1637B
:102570000262F0BD000001400004014030B5026A73
:1025800022F480520262046A4268C3690D6823F42F
:10259000E64343EA05238D6824F4005444EA0534F5
:1025A000084DA84202D0084DA84204D14D6922F43A
:1025B000804242EA85124260C36149680164046254
:1025C00030BD0000000001400004014010B5036A66
:1025D000046A24F001040462846924F0F00444EAEB
:1025E000021423F00A020A438461026210BD10B58E
:1025F000036A23F0100303628369046A23F47043BF
:1026000043EA023224F0A00343EA0111826101622D
:1026100010BD10B5806B0021C185C184FFF7B6F8ED
:1026200010BD01680C3151E8002F22F4907241E88E
:102630000023002BF5D10168143151E8002F22F05E
:10264000010241E80023002BF5D1016B012909D1DA
:1026500001680C3151E8002F22F0100241E80023FC
:10266000002BF5D1202180F83E1000210163704736
:1026700008B590F83E10222901D0022008BD8268DA
:102680004FF480539A4201D1016921B1816A9A4283
:102690001BD04AB10AE00268816A5268C2F308029C
:1026A0000A80816A891C08E0026972B10268526876
:1026B00002F07F020A70816A491C8162C18D491E45
:1026C0000904090CC18503D019E002685268F1E7DA
:1026D0000168CA6822F02002CA600168CA6822F450
:1026E0008072CA6001684A6922F001024A612021B1
:1026F00080F83E10016B012903D0FFF701FA00209A
:1027000008BD0021016301680C3151E8002F22F05F
:10271000100241E80023002BF5D101680A68D206B7
:1027200002D50A6849680091818DFFF72EF8E6E727
:1027300070B5044600680169E26821F44051114314
:1027400001612169A068E269084361691143084396
:102750002168CA6849F20C639A430243CA60206840
:102760004169A26921F440711143416131492068F6
:10277000884202D03049884202D1FEF749F901E08F
:10278000FEF736F9E2690023192164253226B2F5F5
:10279000004F626828D0A0FB0101930F9200FDF763
:1027A00063FD0146B0FBF5F06FF01802504301EBFA
:1027B000800006EB0010B0FBF5F000F0F002B1FB7A
:1027C000F5F002EB0012B1FBF5F06FF0180358437F
:1027D00001EB800006EB0010B0FBF5F000F00F00FD
:1027E00021681044886070BDA0FB010192185B4114
:1027F000FDF73AFD0146B0FBF5F00201B1FBF5F043
:102800006FF01803584301EB800006EBC000B0FBEB
:10281000F5F000F0F80002EB4002B1FBF5F0584390
:1028200001EB800006EBC000B0FBF5F000F0070004
:10283000D6E700000010014000140140816282854B
:10284000C28500210164222280F83E2080F83C10DD
:102850000168CA6842F48072CA6001684A6942F03D
:1028600001024A610068C16841F02001C160002096
:1028700070472DE9F041984617460E460446069DDE
:1028800027E0681C25D02DB1FDF778FFA0EB0800EC
:10289000A8421ED920680C3050E8001F21F4D071E6
:1028A00040E80012002AF5D12068143050E8001FDB
:1028B00021F0010140E80012002AF5D1202084F81F
:1028C0003D0084F83E00002084F83C000320BDE871
:1028D000F0812068006836EA000004D00020B84289
:1028E000CFD00020F3E70120F9E700000148FEF710
:1028F0004FBF000044110020FEE703B401984100DF
:10290000009850EAC12018BF04204A0D18BF40F0BB
:10291000010040F2FF72B2EB515F08BF40F00200CD
:10292000012808BF052002B070470907090E0028DA
:1029300004DB00F1E02080F80014704700F00F0085
:1029400000F1E02080F8141D704700000000000036
:102950002DE9F04D2DED040B2DED0E8B96B0DDE93C
:102960002550279CDDF890A025F0004624F0004873
:10297000BAF1000F14BF0121002101EB4502FC490F
:1029800053184A1093422AD3002814BF012300236E
:1029900003EB44030B44F7498B4220D358EA000170
:1029A0009FEDF59B76D0DFF8D8B35D4503D1BAF142
:1029B000000F05D188E0BAF1000F08BF002100D058
:1029C000012101EB450111F5001F08D8002814BFB3
:1029D0000121002101EB440111F5001F0BD99DEDF0
:1029E000261B9DED240B16B0BDEC0E8B04B0BDE88C
:1029F000F04D00F0D9BE0027002DBCBFE14988454D
:102A000021DAE1498845A8BF02271CDAC3451ADC50
:102A1000DE4901EB2851142908DDC1F1340220FA06
:102A200002F101FA02F282420DD108E058B9C1F177
:102A3000140228FA02F101FA02F2424503D101F030
:102A40000101C1F1020756EA0A0124D1002C22DA61
:102A5000002D18BF022F01D0012F0AD00220FDF750
:102A6000C8FC16B0BDEC0E8B04B0BDE8F04D00F014
:102A700083BE0220FDF7BDFC00F07EFE51EC100B82
:102A800001F073F941EC100B16B0BDEC0E8B04B0E5
:102A9000BDE8F08D18E09FEDBEAB9FEDBF8B002829
:102AA00071D1B848804522D105F1804010F58010E1
:102AB00008BFBAF1000F07D0B3450ADC002CA8BF4D
:102AC0009DED260BE0DA0DE0B0EE490AF0EE690A62
:102AD000DAE7002C06DA9DED260B51EC100B01F025
:102AE00044F96FE0AE48784490ED000BCCE7D84550
:102AF0004DD1002C48DA2EB186423AD1BAF1000FFE
:102B000042D126E0BAF1000F13D00220FDF771FC8C
:102B100000F066FE8DED020B9DED240B8DED000B9C
:102B200010EE900A039961F31E0003909DED020BD5
:102B3000AAE78DED02AB9DED240B1AEE901A10EE74
:102B4000900A8DED000B61F31E0003909DED020BCA
:102B50009AE78DED028B9DED240B18EE901A10EE86
:102B6000900A8DED000B61F31E0003909DED020BAA
:102B70008AE709DA9DED240B51EC190B53EC102B6D
:102B800001F0EEF91EE020E09DED240B7CE786428B
:102B90001BDAB4F1804F0DD0A4F10050B0F1FF501A
:102BA00013D1002D11DB9DED240B51EC100B01F026
:102BB00094F807E09DED240B53EC102B51EC100B17
:102BC00000F0C2BC41EC100B5EE79DED240B51EC14
:102BD000100B00F025FEBAF1000FCDE90E0142D135
:102BE0009FED710B46B3A6F1E040B0F17F600CD0D1
:102BF0005E4538D1002D00DAA7B3022F0CBF0120AB
:102C00004FF0FF3001F004FBDCE7002D01DD002C6C
:102C10000DDA002D01DD002C1FDB002D16DA002C53
:102C200014DB012F08BF9FED620B3FF42DAFB0EE18
:102C30004A0AF0EE6A0A27E7022F18BF002D0CD0CF
:102C4000012F0AD1002DFFF61FAF06E0002DB8BFFF
:102C5000002C08DA012F3FF417AFB0EE480AF0EE6F
:102C6000680A11E71BE0012000EBE57050EA07015C
:102C700015D0791EB0EE498AF0EE698A084308BF84
:102C80009FED4D8B4E480025804570DD4D494E48E7
:102C9000884514DDB0420DDB002C19DB2FE001204C
:102CA000FDF7A7FB16B0BDEC0E8B04B0BDE8F04DF0
:102CB00000F086BDB34502DC002C09DC1FE0864233
:102CC00002DA002C1BDA03E05E452BDD002C16DD5A
:102CD0000220FDF78EFB00F083FD8DED020B53EC1F
:102CE0001A2B51EC180B01F0F9FACDE90001039908
:102CF000019861F31E0003909DED020BC4E60220D3
:102D0000FDF777FB00F07CFD10EE901A18EE900AAC
:102D10008DED020B8DED008B61F31E0003909DED98
:102D2000020BB1E69DED0E0B53EC192B51EC100B81
:102D300001F03AFD9FED260BCDE9080153EC102B75
:102D40009DED080B51EC100B01F0C8FA9FED221B12
:102D500053EC112B01F050FC9DED081B53EC112B93
:102D600001F0BCFA9FED1E1B53EC112B3CE08CE0F4
:102D7000FFFF1F00FFFF0F00000000000000F03FFA
:102D80000000F03F0000F07F0000404301FCFFFF27
:102D9000000000000000F07F0000000000000000C4
:102DA0001E21000000000000000000000000008064
:102DB000000000000000F0FF000000000000F0BF75
:102DC0000000E0410000F043FFFFEF3F0000000083
:102DD000000000000000D03F555555555555D53FD2
:102DE000000000000000E03F01F006FC9DED080B34
:102DF00041EC1A0B53EC102B51EC100B01F06EFA56
:102E000053EC1A2B01F06AFA41EC1A0B9FEDFE0B02
:102E100053EC102B9DED080B51EC100B01F05EFAFA
:102E200041EC1B0B9FEDFA0B51EC1A0B53EC102BE2
:102E300001F054FA41EC1A0B9FEDF70B53EC102BF9
:102E40009DED080B51EC100B01F048FA53EC1A2BD6
:102E500001F0AAFC41EC1A0B51EC1B0B53EC1A2BA2
:102E600000F0C2FF0690CDE906519DED060B53EC34
:102E70001B2B51EC100B01F097FC53EC1A2B01F0BB
:102E8000BBFB41EC100B00F0A1B90020B6F5801F90
:102E90000EDA9FEDE30B53EC102B9DED0E0B51EC76
:102EA000100B01F01BFACDE90E016FF034000E4655
:102EB00000EB2650A0F2FF37C6F31300DA4940F0CA
:102EC0007F6646F040568842D8BF002408DDD749C7
:102ED0008142C8BF012403DC0024A6F580167F1CB4
:102EE000D348784400EBC4000F9690ED00CB9DEDE5
:102EF0000E0B53EC1C2B51EC100B01F055FC9DED0F
:102F00000E0B41EC1B0B53EC1C2B51EC100B00F087
:102F10006BFF41EC100B51EC190B53EC102B01F033
:102F20001FF841EC1D0B51EC1B0B53EC1D2B01F05A
:102F3000D5F941EC1A0BBF488DED10AB78441095D4
:102F400090ED000B4FF0005040EA660000EB84402B
:102F50008DED080B00F5002009909DED080B53EC5A
:102F60001C2B51EC100B01F01FFC9DED0E1B53ECC4
:102F7000112B01F041FB41EC100B53EC102B9DED9C
:102F8000100B51EC100B01F0A9F99DED080B41EC71
:102F90001C0B53EC102B9DED100B51EC100B01F0A2
:102FA0009DF953EC1B2B01F027FB53EC1C2B01F07C
:102FB000FBFB53EC1D2B01F091F941EC1C0B53EC86
:102FC0001A2B51EC1A0B01F089F941EC1B0B9A48B2
:102FD0000621B0EE4B0AF0EE6B0A784400F050FB8D
:102FE000B0EE401AF0EE601AB0EE41DAF0EE61DABF
:102FF00053EC1B2B51EC1B0B01F070F953EC1D2B08
:1030000001F06CF99DED100B41EC1B0B53EC1A2BEE
:1030100051EC100B00F0E8FE53EC1C2B01F05EF9B4
:1030200053EC1B2B00F0E0FE9DED100B41EC1B0B55
:1030300053EC102B51EC100B01F050F941EC1D0B2F
:103040009FED7FEB53EC1E2B00F0CEFE53EC1B2BC1
:1030500000F0CAFE0890CDE908519DED080B53EC35
:103060001E2B51EC100B01F09FFB53EC1D2B01F0BC
:103070009BFB53EC1B2B01F0BFFA9DED080B41ECC1
:103080001D0B53EC102B9DED100B51EC100B01F0B0
:1030900025F941EC1B0B53EC1A2B51EC1D0B01F0E5
:1030A0001DF99DED080B41EC1A0B53EC102B51EC64
:1030B0001C0B01F013F953EC1A2B00F095FE41ECB8
:1030C0001A0B51EC1B0B53EC1A2B00F08DFE0C90DD
:1030D000CDE90C519DED0C0B53EC1B2B51EC100B5F
:1030E00001F062FB53EC1A2B01F086FA41EC1B0B4A
:1030F0009FED550B53EC102B9DED0C0B51EC100B71
:1031000001F0ECF841EC1A0B9FED510B51EC1B0B4D
:1031100053EC102B01F0E2F841EC1B0B9FED4E0B32
:1031200053EC102B9DED0C0B51EC100B01F0D6F86D
:1031300053EC1B2B00F058FE41EC100B4848784430
:1031400000EBC40090ED001B51EC100B53EC112B65
:1031500000F04AFE41EC1B0B384601F059F8CDE96E
:10316000080153EC1B2B51EC1A0B00F03DFE41EC17
:10317000100B3C48784400EBC40090ED00CB51ECC0
:10318000100B53EC1C2B00F02FFE9DED081B53EC95
:10319000112B00F029FE0690CDE906519DED080B9C
:1031A00053EC102B9DED060B51EC100B01F0FCFACB
:1031B00053EC1C2B01F0F8FA53EC1A2B01F0F4FA43
:1031C00053EC1B2B01F018FA41EC100B9DED261B64
:1031D00053EC102B8DED001B00959DED260B51EC53
:1031E000100B01F07BF89DED000B41EC1A0B53EC3A
:1031F000102B9DED260B51EC100B01F0D5FA9DED37
:10320000061B53EC112B2FE0000000604715F73F21
:10321000FE822B654715F73F44DF5DF80BAE543E49
:1032200000000000000040438E9803007AB60B00B7
:103230009A1C0000C81C0000D21B00000000000007
:103240000000000000000840000000E009C7EE3F59
:10325000FD033ADC09C7EE3FF5015B14E02F3EBEEB
:103260005E1A0000181A000001F038F853EC1A2B0F
:1032700000F0BAFD9DED060B41EC1A0B53EC102B40
:103280009DED000B51EC100B01F028F8CDE90C017D
:103290009DED0C0B51EC1A0B53EC102B00F0A4FD20
:1032A000CDE902010C46AA498C422FDB611A084382
:1032B00018D19DED0C0B53EC102B9DED020B51EC36
:1032C000100B01F071FA41EC1B0B9FEDA30B51ECBD
:1032D0001A0B53EC102B00F087FD53EC1B2B01F065
:1032E000FBF82DD20220FDF784F800F079FA10EEF9
:1032F000901A18EE900A8DED020B8DED008B61F3A4
:103300001E0003909DED020BFFF7BEBB944A24F014
:103310000041914214D39349214408437FF4EFAC18
:103320009DED0C0B53EC102B9DED020B51EC100B93
:1033300001F03AFA53EC1A2B01F0CEF87FF6DFAC2D
:1033400024F000408849894A002601EB205182423E
:103350002BDA481C4FF4801121FA00F02044844AF3
:10336000C0F30A517A44A1F2FF3192ED000B814A79
:103370008DED080BCA4020EA0202C0F3130040F4AE
:103380008010C1F1140120FA01F60992002CB8BF97
:1033900076429DED080B53EC102B9DED0C0B51EC80
:1033A000100B01F001FACDE90C019DED0C0B51EC75
:1033B0001A0B53EC102B00F017FD9FED6F0B0890CC
:1033C000CDE9085153EC102B9DED080B51EC100B7F
:1033D00000F084FF41EC1B0B9FED690B53EC102BAD
:1033E0009DED080B51EC100B00F078FF9DED0C0BE0
:1033F00041EC1C0B53EC102B9DED080B51EC100B0A
:1034000001F0D2F953EC1A2B01F0F6F89FED5E1B98
:1034100053EC112B00F062FF53EC1C2B00F0E4FC8A
:1034200041EC1A0B51EC1B0B53EC1A2B00F0DCFC9B
:10343000CDE902019DED020B53EC1B2B51EC100B5F
:1034400001F0B2F953EC1A2B01F0D6F89DED020B06
:1034500041EC1A0B53EC102B51EC100B00F03EFF1B
:10346000CDE908014A489DED080B0521784400F09C
:1034700007F99DED081B51EC100B53EC112B00F0DC
:103480002DFF9DED021B53EC112B01F0B5F8CDE99A
:1034900006019DED020B53EC1A2B51EC100B00F0C2
:1034A0001DFF53EC1A2B00F09FFC9FED3B0B41ECF2
:1034B0001A0B53EC102B9DED060B51EC100B01F089
:1034C00073F99DED060B41EC1B0B53EC102B9DED9E
:1034D000020B51EC100B00F001FF53EC1B2B00F022
:1034E0003FFD53EC1A2B01F05FF99DED021B53ECED
:1034F000112B01F059F953EC192B01F07DF8CDE9AE
:10350000020101EB065001150029C8BF039015DC2C
:103510009DED020B324651EC100B01F0DCFAFFF787
:10352000ECF9042808BF00F06BF932469DED020B60
:1035300051EC100B01F0CFFACDE902019DED020B29
:1035400051EC180B53EC102B00F0C8FEFFF73ABB00
:103550000000904000000000FE822B654715973C5C
:1035600000CC904000346F3F01FCFFFF0000E03FC3
:10357000A0180000FFFF0F0000000000432EE63FF0
:10358000396CA80C615C20BEEF39FAFE422EE63F92
:103590007017000000000000000000000000004064
:1035A00010B52DED020B2DED088B84B09DED0C0BAD
:1035B00051EC100B00F0C6FF41EC180B9DED0C0B0D
:1035C00053EC182B51EC100B01F0EEF841EC190BF9
:1035D0000D989FED290B10F0004F53EC102B51EC80
:1035E000190B9FED21AB9FED22BB0ED000F03AFEF0
:1035F0000ED953EC1B2B51EC190B00F06DFF1CD2B4
:1036000014E000BF41EC180B17E000F02BFE06D2CF
:1036100053EC1A2B51EC180B01F0C6F8F2E753ECFF
:103620001B2B51EC190B00F057FF06D853EC1A2B4B
:1036300051EC180B00F0D8FBE4E78DED028B9DED0B
:103640000C0B18EE901A10EE900A8DED000B61F342
:103650001E0003909DED020B04B0BDEC088B02B080
:1036600010BD000000000000000000000000F03F5E
:10367000000000000000E03F000000000000E0BF8C
:1036800070B504462DED028B4D1E00EBC500B0EE6B
:10369000408AF0EE608A90ED000B35F0060017D0FE
:1036A00053EC182B51EC100B00F018FE41EC100BF2
:1036B0006D1E04EBC50090ED001B51EC100B53EC9C
:1036C000112B00F091FB41EC100B35F00600E7D117
:1036D000022D36D0042D1CD0062D1CBFBDEC028B54
:1036E00070BD53EC182B51EC100B00F0F7FD94ED6E
:1036F0000A1B53EC112B00F077FB53EC182B00F056
:10370000EDFD94ED081B53EC112B00F06DFB41EC2B
:10371000100B53EC182B51EC100B00F0DFFD94ED67
:10372000061B53EC112B00F05FFB53EC182B00F041
:10373000D5FD94ED040B53EC102B00F055FB41EC40
:10374000100B53EC182B51EC100B00F0C7FD94ED4F
:10375000021B53EC112B00F047FB53EC182B00F02D
:10376000BDFD94ED001B53EC112B00F03DFBBDECB7
:10377000028B41EC100B70BD9FED070B10B553ECA5
:10378000102B9FED070B51EC100B00F0E9FB41EC07
:10379000100B10BD00000000000000000000000041
:1037A000000000000000F03F10B553EC112B51EC6D
:1037B000100B00F019FB41EC100B10BD00000000D5
:1037C0009FED050B10B553EC102B51EC100B00F0D6
:1037D000C7FB41EC100B10BD000000000000000012
:1037E0009FED050B10B553EC102B51EC100B00F0B6
:1037F00075FD41EC100B10BD0000000000000070D2
:103800009FED050B10B553EC102B51EC100B00F095
:1038100065FD41EC100B10BD000000000000001021
:1038200082B0CDE9000121F0004001909DED000B38
:1038300002B051EC100B70472DED068BFCF7ACFF7E
:10384000FEF71EFDFEF7CAF9FEF71AFAFEF74AFA6E
:10385000FEF78AFAFEF7BEFAFEF7C8FCFEF7D8FAC2
:10386000F84D012604212E70F748FDF7A3FC042132
:10387000F648FDF777FEFCF781FFDFF8D483DFF829
:10388000C8930024C8F80800D9F800004462F14F3A
:10389000DFF8C4B39FEDF18ADFF8C4A338780028BD
:1038A00042D00422EFA1F148FEF7DAFC08B1022071
:1038B00036E00422EEA1ED48FEF7D2FC08B1042068
:1038C0002EE00422ECA1E948FEF7CAFC08B105206D
:1038D00026E00422EAA1E548FEF7C2FC08B1062072
:1038E0001EE00422E8A1E148FEF7BAFC08B1082076
:1038F00016E00422E6A1DD48FEF7B2FC08B109207B
:103900000EE00422E4A1D948FEF7AAFC08B10A207F
:1039100006E00422E2A1D548FEF7A2FC10B10B207C
:10392000287000E02E703C7028780C28B6D2DFE8B2
:1039300000F006070A067E80B706E6F9F7F6ADE75F
:10394000FEF74AFCAAE7D848CBF800400460FEF72F
:103950005FFAD648FEF7C2FBD9F800104FF40040DA
:103960004862D348B2EE041A04809AF8010000EECF
:10397000100A9AF80000B8EE400AC0EE010A00EE04
:10398000100ACA48B8EE400A30EE800A80ED000AFC
:103990009AF8040000F053FC41EC110B9FEDC5AB0D
:1039A000B0EE4A0AF0EE6A0AFEF7D2FFB0EE409A95
:1039B000F0EE609A9AF8030000F041FC53EC192BEA
:1039C00000F0CEFA41EC190B9AF8020000F037FC37
:1039D00053EC192B00F008FA00F0D4F9B349486011
:1039E0009AF8070000F02BFC41EC110BB0EE4A0AEC
:1039F000F0EE6A0AFEF7ACFFB0EE409AF0EE609A85
:103A00009AF8060000F01BFC53EC192B00F0A8FA02
:103A100041EC190B9AF8050000F011FC53EC192B3E
:103A200000F0E2F900F0AEF9A049886008E1032057
:103A300034E0D9F800104FF4004048629A48C8F8C2
:103A40001C4004609948CBF80040FEF747FB9848BB
:103A500004809AF806109AF807000A09120300EE8B
:103A6000102A0907090DF8EE400A00EE101A20F09E
:103A70000F0100F00F00B8EE400A70EE800A00EE71
:103A8000101AB8EE400A70EE800A00EE100A092003
:103A9000B8EE400A30EE800A88ED060A2870FDE68E
:103AA000814804608148CBF80040FEF717FB80484E
:103AB00004809AF806109AF807000A09120300EE2B
:103AC000102A0907090DF8EE400A00EE101A20F03E
:103AD0000F0100F00F00B8EE400A70EE800A00EE11
:103AE000101AB8EE400A70EE800A00EE100A734811
:103AF000B8EE400A30EE800A80ED020AA0E06A4883
:103B0000CBF8004004606948FEF7E8FAD9F80010E5
:103B10004FF400404862664804800720BEE789E011
:103B200082E0FFE7FCF72AFED8F80820D8F80C104E
:103B3000801A88426FD3FCF721FEC8F80800D9F834
:103B40000010486A4FF40042C8F804004A62B0F519
:103B5000004000D5404200EE100AB8EEC00ADFED8A
:103B6000580A20EE200A60EE080A9FED561A80EEF1
:103B7000810A20EE080A10EE100A00F0FFFE41EC68
:103B8000100BFFF70DFD9FED501B51EC100B53EC8C
:103B9000112B00F0E5F900F0F5F801EE100A4348AA
:103BA00088ED051AD8ED060A98ED040AFEF7A4FA86
:103BB00000EE100AB8EEC00A88ED040AD8F820001A
:103BC000BCEEC00A012829D0204910EE100A09686D
:103BD000C1F8340098ED050A344BD8F81C2020EECB
:103BE000080A03EB4203B2F5167FBCEEC00A10EEE2
:103BF000100A80B2A3F8EC070DDC1549020A0A236B
:103C00004A70087002223248FDF78CFFD8F81C0079
:103C1000401CC8F81C000920287091E60B4810EEE3
:103C2000101A00688163D5E7084801684C63006892
:103C300084632E709AF8000001284BD0C8F8204009
:103C40002E702BE614000020FC100020B410002081
:103C50003400002000000020240000200000C842A2
:103C60000B000020535049440000000007000020D2
:103C70004354554E000000004750494400000000E6
:103C800043534554000000004352554E00000000CD
:103C900047524D530000000053544F5000000000A5
:103CA000524F544E00000000200000207C000020F5
:103CB0001600002000000000000024403810002002
:103CC0000000704200F0074600000000000059406C
:103CD00044110020C8F82060B2E700B52DED048B38
:103CE00083B041EC190B00F093FC41EC180B18EE7B
:103CF000100A18EE901A8DED008B002818BF0120D5
:103D0000084320F00040C0F17F6000F1E040C00FA8
:103D100014D019EE101A19EE900A8DED009B0029AF
:103D200018BF0121084320F00040C0F17F6000F17E
:103D3000E040C00F04BF0120FCF75BFB51EC180B07
:103D400003B0BDEC048B00BD70B54518002605F826
:103D5000016C144601E02E55641C2846FCF7FBFA62
:103D6000401CA042F7D8284670BD81F00041704742
:103D700080F00040704721F00041704720F0004083
:103D80007047000021F00042A2F16052B2F5801F9E
:103D900001F0004328BFD2F17F6C0BD95FEA001C11
:103DA00043EAC20242EB507018BF704728BF20F0B0
:103DB00001007047B2F5801FBCBF184670474FEA3C
:103DC000410C1CF5001F02D2084600F04DBE70B534
:103DD00000F02EFB00000089FFF7F6BF4FF0004017
:103DE000A0F580007047000010B591EA030F48BFAE
:103DF00083F0004300F1E084841A71EB030C05D2D8
:103E0000121943EB0C03001B61EB0C01DFF824E1FA
:103E10004FEA1154A4EB135C1EEA430F18BF9EEA4D
:103E2000445F73D023EA0E03DCF1200E21EA045133
:103E300043F4801332D322FA0CFE10EB0E0023FA67
:103E40000CFE41EB0E01CCF1200E03FA0EFE10EB3E
:103E50000E0051F10001B1F5801FCCF1200E32D2DD
:103E600001EB045112FA0EF2BDE8104058BF704742
:103E7000401C38BF5FEA420218BF7047002814BFD9
:103E800020F0010041F100014FEA410313F5001F4A
:103E900038BF7047A1F1C04100F018BB012A43EBC5
:103EA0000302ACF1200CDCF11F0E32BF4FF0000E0C
:103EB00023FA0CF310EB030041EB0451B4EB115F58
:103EC000D0D0A1EB045101F5801149085FEA300020
:103ED00001EB04510ED350F1000038BF12FA0EFE70
:103EE00008D1BDE81040C9E7401C38BF5FEA420274
:103EF000CAD1C3E7BDE810404FEA410313F5001FE4
:103F000038BF7047A1F1C04100F0E0BA9EEA445FBB
:103F100008D011EA5E0FBDE8104004BF01F0004177
:103F200000207047BDE8104070B500F081FA00BF76
:103F300064FBBE3E0000E0FF02494FF0000000F0CD
:103F400098BD00BF0000F87F491058BFC1F1404143
:103F50005B1058BFC3F140438B42EFF300807047C2
:103F60002DE9C04130B4DFF8A0C23CEA111418BFFB
:103F70003CEA131400F0EC8081EA03051CEA1114FA
:103F800044EAD57418BF1CEA131500F0C780A4EBEF
:103F900005044FF0004545EAC12145EAC32341EA43
:103FA000505143EA525304F17F74994204F50034AE
:103FB0004FEAC0204FEAC22208BF904200F09C8026
:103FC0004FEA13650FF24016765D4FEA134506FB84
:103FD00005F7C7F1807706FB07F74FEAD737A7FB4E
:103FE00003687642C8F58038A7FB06CE38BFA8F133
:103FF000010807FB08E64FF0000EA6FB028CE6FB6B
:1040000003CEDCF1000CCEF1004E38BFAEF1010E54
:10401000A6FB0C584FF000074FF00005E6FB0E879B
:10402000A1FB08C6A0FB07CE16EB0E0645F1000566
:10403000E1FB076515F1E04E7EBFA4F580345FEA31
:1040400046066D4116F1800745F100054FEA172736
:104050004FEA066647EA0567A6F1DE46B6F1805FDD
:104060004FEA15251FD9384624F0010C05EBC47121
:10407000BCF1FE6F01EB0C1102D8F0BCBDE8008171
:1040800024425CBF01F5801E9EEAC47F02D4F0BCCE
:10409000BDE80081244238D4F0BCA1F1C041BDE8A4
:1040A000004100F013BA4FEAD22242EA43524FEAEB
:1040B000D323A7FB02864FEAD02040EA415007FBFA
:1040C00003661EEA0E0F4FEAD12105FB026658BFB8
:1040D000A6EB0056B6EB00564FEA520E4EEAC37EF0
:1040E00018EB0E0E56EB530EBDD518EB02085E41D1
:1040F0007F1C55F10005B6E74FF480154FF000071F
:104100004FF000064FF00008ADE7F0BC4FF00000A4
:1041100001F1C04101F00041BDE8008111EA0C1F2E
:104120000CEA131500D00CE013EA0C1F00F02580F8
:104130004FF00000F0BC81EA030101F00041BDE84E
:104140000081F0BCBDE8004181EA030100F0BEB986
:10415000F0BCBDE8004170B500F06AF9097EFC3E94
:1041600000F007B881EA03014FF0000001F00041C0
:10417000704781EA030100F0A9B9F0BCBDE8004135
:104180004FF0000021497047FFFDFBF9F7F5F4F20D
:10419000F0EEEDEBE9E8E6E4E3E1E0DEDDDBDAD8E2
:1041A000D7D5D4D3D1D0CFCDCCCBCAC8C7C6C5C440
:1041B000C2C1C0BFBEBDBCBBBAB9B8B7B6B5B4B357
:1041C000B2B1B0AFAEADACABAAA9A8A8A7A6A5A442
:1041D000A3A3A2A1A09F9F9E9D9C9C9B9A99999806
:1041E0009797969595949393929191908F8F8E8EA9
:1041F0008D8C8C8B8B8A8989888887878685858436
:1042000084838382828181800000FF070000F87F21
:1042100010F0004248BF4042B0FA80F310FA03F1B8
:104220000AD0C3F11D0303F580634FEA415002EB4E
:10423000035202EBD12170474FF000007047B0FAF3
:1042400080F310FA03F10AD0C3F11D0303F5806374
:104250004FEA41504FEA035202EBD12170474FF031
:104260000000704751EA030C17D41CF5801F58BF9B
:10427000BCF5801F00F10680994218BF704708BF47
:104280009042704707D711F5801F58BF13F5801F64
:1042900019D499427047894270471CF5801F08D590
:1042A000BCF5801FF7D58B4218BF704708BF82420C
:1042B00070474FF4001C1CEB410F38BF1CEB430F41
:1042C00001D28B42704770B500F0B2F892244900D9
:1042D0004FF000514FF08053FFF736BEDFF848C172
:1042E00070B51CEA111E1EBF1CEA13159EEA0C0FC6
:1042F00095EA0C0F00F06F8081EA030423EA4C1367
:104300004EEAD47E21EA4C1141F4801143F480132B
:10431000AE44A1FB024CA0FB0365AEF17F7E3619D3
:1043200055EB0C05A1FB034C4CF10003A0FB021C58
:1043300016EB0C06654153F10003094218BF46F025
:10434000010613F4007F0BD14FEA03314FEA053029
:10435000340341EA155140EA16506FF003020AE0B7
:104360004FEAC3214FEAC520F40241EA555140EA21
:1043700056506FF0020202EB2E4201EB025585EA25
:10438000CE710AD05FEA440C18BF24F0004450F10B
:10439000000041F1000120EAD47040F2FE7C624549
:1043A00000D270BDA84214BF4FF080444FF040448B
:1043B000002E08BF0024BEF1806FA8BFA1F1C0414C
:1043C000BDE8704080F282804FF0000001F1C041F2
:1043D00001F0004170479EEA0C0F0CEA131518BF5C
:1043E00095EA0C0F06D04FF0000081EA030E0EF0A4
:1043F000004170BD00F01CF88900013E00F007B8D4
:1044000000F009B84FEA430C5FEA5C5C08D081EA2F
:10441000030100F05BB84FEA410C5FEA5C5CF6D147
:104420004FF00000014970470000FF070000F87FCF
:104430000EF1020E2EF0030E5EF8046B364205D428
:10444000012A43EB030515F5001F12D8012841EBA3
:10445000010C1CF5001F0CD80ED14FEAD17C15F5CC
:10446000001F0CEB4C0C0CF1020C08BF4CEBD37C86
:1044700004E04FF0080C01E04FEAD37C0CEB4C0554
:1044800026FA05F606F00706B6F1040C06D20EEB86
:10449000860CBDE870404CF0010C6047DFE80CF082
:1044A000090B02024FF000414FF00000A1F500217E
:1044B00070BD19461046012851EB010418BFD4F510
:1044C000001484BF002001F0004170BD0808A0F571
:1044D00000114FEA3101704753EA010C17D41CF563
:1044E000801F58BFBCF5801F00F106808B4218BFAB
:1044F000704708BF8242704707D713F5801F58BF27
:1045000011F5801F19D48B4270479B4270471CF5F0
:10451000801F08D5BCF5801FF7D5994218BF70479A
:1045200008BF904270474FF4001C1CEB430F38BF8C
:104530001CEB410F01D2994270470FB40CBC03BC75
:10454000FFF7C1BE5FEA410C5FEA5C5CACF58063DB
:104550005B1C39D4D3F1340240F34580B2F120031F
:1045600014DA4FF0010C0CFA02FCACF10103034029
:10457000B3EB5C0220EA030008BF10EA0C0F98BFFF
:10458000704710EB0C0041F1000170470AD0C3F1F5
:10459000200201FA02FC012821FA03F101FA03F1D9
:1045A0004CF100004FF0010C0CFA03FCACF10103DC
:1045B000B0F1004F21EA030108BF11EA0C0F4FF0E0
:1045C000000088BF61447047B3F1FF3F28BF50EA45
:1045D000C12C01F000414FF0000084BF41F07C513C
:1045E00041F470017047B3F5806FB8BF704770B584
:1045F000FFF71EFF40DBB6BE91EA030F10B581F056
:1046000000413FF5F9AB83F0004300F0D5B800005E
:104610002DE9F04101F5801CBCF5001FC0F2A98016
:104620004FEA115C21EA0C510CF1FD0C41F48011B0
:104630005FEA5C0C0CF5C07C01D34000494130A41A
:10464000890241EA905187028E0E0A0CA45D04FB98
:1046500004F602FB06F6C6F14046A4FB0662F60D20
:1046600046EA422606FB06F4A4FB01235242C3F1AC
:10467000404338BF5B1EA6FB02420024E6FB032436
:10468000D20B42EA4446A6FB0623A1FB02E2A3FBAF
:1046900007E4E3FB61426442C2F1404E38BFAEF131
:1046A000010EA6FB04234FF00002E6FB0E32A2FB34
:1046B00003463400E2FB6264A1FB06E6A4FB07E8C4
:1046C000E4FB61687642C8F1405838BFA8F10108A0
:1046D000A2FB06E4A3FB08E5E2FB6854A1FB05E6A8
:1046E000A7FB04E8E1FB648618F1200556F10006FB
:1046F000A809A8F11B08B10908F03F08B8F10A0F92
:1047000040EA86601CD901EB0C51BDE8F08100BF86
:10471000FCF5EEE8E2DDD8D3CFCBC7C3C0BDB9B658
:10472000B4B1AEACA9A7A5A3A19F9D9B9A9896955D
:104730009392908F8D8C8B898887868584838281E4
:10474000A0FB006800FB01F208EB4208B8EB8728E9
:1047500007D5341858EB0104D5D5401C51F10001A0
:10476000D1E7341A78EB0104CDD4401E71F1000179
:10477000C9E75FEA4C0C5FEA9C5C0DD105D34FF0B2
:10478000000001F00041BDE8F081BDE8F04170B5E6
:10479000FFF74EFE6DDBFFBEBDE8F0414FF00000BD
:1047A000004970470000F87F10B591EA030F48BF39
:1047B00083F000433FF520AB841A71EB030C07D262
:1047C00012198CF0004C43EB0C03001B61EB0C0145
:1047D000DFF8A4E14FEA1154A4EB135C1EEA430F87
:1047E00018BF9EEA445F00F0B08023EA6E03524295
:1047F00021EA0451C3EB6E0338BF5B1EDCF1200ECF
:1048000025D322FA0CFE10EB0E0043FA0CFE41EB0E
:104810000E01CCF1200E03FA0EFE10EB0E0051F14A
:104820000001CCF1200E29D412FA0EF201EB045152
:10483000BDE8104058BF7047401C1CBFB2F1004F8C
:10484000704700280CBF491C20F00100704712EB94
:10485000020E43EB030218BF4FF0010E4EEA420274
:10486000ACF1200CDCF11E0E54D943FA0CFE10EB17
:104870000E0051F1FF31CCF11E0ED5D50EF1010E17
:1048800012FA0EFE404141EB010101EB445C5FEA8C
:104890005C5C10D910EBDE7001EB045138BFBEF147
:1048A000004FBDE8104018BF704700280CBF491CDE
:1048B00020F00100704730D24FEAD42C11F50011DE
:1048C00024F400641BD0B1FA81F20B3AA41AA41E9E
:1048D000D2F12003914030FA03F31943904001EBE9
:1048E000CC71002C01EB0451BDE81040A8BF70470B
:1048F00001F1C0414FF0000001F000417047B0FAF3
:1049000080F310FA03F100D110BDE41A173C4805FA
:10491000C90AE4E701EB045110BD491001EB045151
:10492000BDE810404FEA300002E04FF00001704750
:104930004A0008BF0042F8D0B2F5001F28BF7047F8
:1049400001F000414FF0000070479EEA445F07D03D
:1049500011EA5E0FBDE8104004BF0021002070473F
:10496000BDE8104070B5FFF763FD00BF40DFF63EC5
:1049700083F00041104670470000E0FF43004FEA1B
:10498000D30C4FEA3C0C43401FBF40070CF1605171
:1049900013F0FE4F70471CF0006F03D100200CF0A5
:1049A000004170470CF0004343EA507010B540EAF4
:1049B000CC0000F00EF800BF000000924FEA0001AA
:1049C000FFF784BD4FF000414FF00000A1F500213A
:1049D00070470EF1020E2EF0030E5EF8044B2442D7
:1049E00004D44FEA4102B2F17F4F11D84FEA40039D
:1049F000B3F17F4F0CD80ED14FEAD07CB2F17F4F8C
:104A00000CEB4C0C0CF1020C08BF4CEBD17C04E01D
:104A10004FF0080C01E04FEAD17C0CEB4C0324FA78
:104A200003F404F00704B4F1040C06D20EEB840C7A
:104A3000BDE810404CF0010C6047DFE80CF00708BF
:104A400002024FF00040A0F5800010BD0846420071
:104A500018BFD2F1807288BF00F0004010BD4FF047
:104A60004070E1EE100A7047FF2141EAD050C005C6
:104A700070470CF00F03092B08BF082000F0598085
:104A80000A2B0BD0082B18BF704708BF1CF0400F33
:104A90000AD04FF000004FF0000170471CF0400FAB
:104AA00018BF4FF0004070471CF0100F08D020F0E6
:104AB000704300F07F4242EAD3014FEA43707047EF
:104AC00000F0604021F07F4242EA000201F07F40A6
:104AD00040EA727070474FF0FF0C4CF4E06C1CEA37
:104AE00011531CBF9CEA030C9445C2BFDA4201EB90
:104AF00002517047002B0DD0BCF1000F0FD0002ADF
:104B000001F00041A4BF41F0E04141F07F614FF06E
:104B10000000704701F000414FF00000704750EA7C
:104B200001334FF09B0C18BF4CF0806C7FF404AA4B
:104B300070471CF4801F11D01CF4E02F03D06FEAE3
:104B4000CC31490070474FF04050EFF3008222F023
:104B5000704242EA000282F3008870474FF0000082
:104B60007047000000000000000001020304060777
:104B7000080900000000010203040000000000001A
:104B8000000000000000F03F000000000000F83FBF
:104B900000000000000000000000004003B8E23FF9
:104BA000000000000000000006D0CF43EBFD4C3EAB
:104BB000033333333333E33FFFAB6FDBB66DDB3FA0
:104BC0004D268F515555D53F01411DA96074D13FE8
:104BD00065DBC9934A86CD3FEF4E454A287ECA3FE2
:104BE0003E5555555555C53F93BDBE166CC166BF64
:104BF0002CDE25AF6A56113FF16BD2C541BDBBBE5D
:104C0000D0A4BE726937663E0000000000000000BC
:104C1000304C00080000002068000000C4010008BB
:104C2000984C00086800002080170000E001000890
:104C30000002030600000000000000000000000069
:104C40000000000000000000000000000000000064
:104C50000000000000000000000000000000000054
:104C60000000000000000000000000000000000044
:104C70000A0000000000000000000000000000002A
:104C80000000000000000000010000001000000013
:084C9000000000000024F40004
:040000050800018965
:00000001FF
